{
  "address": "0x44A7117d02D09090ecDEf0b7055f1858cCd40b5c",
  "abi": [
    {
      "inputs": [],
      "stateMutability": "nonpayable",
      "type": "constructor"
    },
    {
      "anonymous": false,
      "inputs": [
        {
          "indexed": true,
          "internalType": "address",
          "name": "owner",
          "type": "address"
        },
        {
          "indexed": true,
          "internalType": "address",
          "name": "approved",
          "type": "address"
        },
        {
          "indexed": true,
          "internalType": "uint256",
          "name": "tokenId",
          "type": "uint256"
        }
      ],
      "name": "Approval",
      "type": "event"
    },
    {
      "anonymous": false,
      "inputs": [
        {
          "indexed": true,
          "internalType": "address",
          "name": "owner",
          "type": "address"
        },
        {
          "indexed": true,
          "internalType": "address",
          "name": "operator",
          "type": "address"
        },
        {
          "indexed": false,
          "internalType": "bool",
          "name": "approved",
          "type": "bool"
        }
      ],
      "name": "ApprovalForAll",
      "type": "event"
    },
    {
      "anonymous": false,
      "inputs": [
        {
          "indexed": true,
          "internalType": "address",
          "name": "from",
          "type": "address"
        },
        {
          "indexed": true,
          "internalType": "address",
          "name": "to",
          "type": "address"
        },
        {
          "indexed": true,
          "internalType": "uint256",
          "name": "tokenId",
          "type": "uint256"
        }
      ],
      "name": "Transfer",
      "type": "event"
    },
    {
      "inputs": [
        {
          "internalType": "address",
          "name": "to",
          "type": "address"
        },
        {
          "internalType": "uint256",
          "name": "tokenId",
          "type": "uint256"
        }
      ],
      "name": "approve",
      "outputs": [],
      "stateMutability": "nonpayable",
      "type": "function"
    },
    {
      "inputs": [
        {
          "internalType": "address",
          "name": "owner",
          "type": "address"
        }
      ],
      "name": "balanceOf",
      "outputs": [
        {
          "internalType": "uint256",
          "name": "",
          "type": "uint256"
        }
      ],
      "stateMutability": "view",
      "type": "function"
    },
    {
      "inputs": [
        {
          "internalType": "uint256",
          "name": "tokenId",
          "type": "uint256"
        }
      ],
      "name": "generateCharacter",
      "outputs": [
        {
          "internalType": "string",
          "name": "",
          "type": "string"
        }
      ],
      "stateMutability": "nonpayable",
      "type": "function"
    },
    {
      "inputs": [
        {
          "internalType": "uint256",
          "name": "tokenId",
          "type": "uint256"
        }
      ],
      "name": "getApproved",
      "outputs": [
        {
          "internalType": "address",
          "name": "",
          "type": "address"
        }
      ],
      "stateMutability": "view",
      "type": "function"
    },
    {
      "inputs": [
        {
          "internalType": "uint256",
          "name": "tokenId",
          "type": "uint256"
        }
      ],
      "name": "getLevels",
      "outputs": [
        {
          "internalType": "string",
          "name": "",
          "type": "string"
        }
      ],
      "stateMutability": "view",
      "type": "function"
    },
    {
      "inputs": [
        {
          "internalType": "uint256",
          "name": "tokenId",
          "type": "uint256"
        }
      ],
      "name": "getTokenURI",
      "outputs": [
        {
          "internalType": "string",
          "name": "",
          "type": "string"
        }
      ],
      "stateMutability": "nonpayable",
      "type": "function"
    },
    {
      "inputs": [
        {
          "internalType": "address",
          "name": "owner",
          "type": "address"
        },
        {
          "internalType": "address",
          "name": "operator",
          "type": "address"
        }
      ],
      "name": "isApprovedForAll",
      "outputs": [
        {
          "internalType": "bool",
          "name": "",
          "type": "bool"
        }
      ],
      "stateMutability": "view",
      "type": "function"
    },
    {
      "inputs": [],
      "name": "mint",
      "outputs": [],
      "stateMutability": "nonpayable",
      "type": "function"
    },
    {
      "inputs": [],
      "name": "name",
      "outputs": [
        {
          "internalType": "string",
          "name": "",
          "type": "string"
        }
      ],
      "stateMutability": "view",
      "type": "function"
    },
    {
      "inputs": [
        {
          "internalType": "uint256",
          "name": "tokenId",
          "type": "uint256"
        }
      ],
      "name": "ownerOf",
      "outputs": [
        {
          "internalType": "address",
          "name": "",
          "type": "address"
        }
      ],
      "stateMutability": "view",
      "type": "function"
    },
    {
      "inputs": [
        {
          "internalType": "address",
          "name": "from",
          "type": "address"
        },
        {
          "internalType": "address",
          "name": "to",
          "type": "address"
        },
        {
          "internalType": "uint256",
          "name": "tokenId",
          "type": "uint256"
        }
      ],
      "name": "safeTransferFrom",
      "outputs": [],
      "stateMutability": "nonpayable",
      "type": "function"
    },
    {
      "inputs": [
        {
          "internalType": "address",
          "name": "from",
          "type": "address"
        },
        {
          "internalType": "address",
          "name": "to",
          "type": "address"
        },
        {
          "internalType": "uint256",
          "name": "tokenId",
          "type": "uint256"
        },
        {
          "internalType": "bytes",
          "name": "data",
          "type": "bytes"
        }
      ],
      "name": "safeTransferFrom",
      "outputs": [],
      "stateMutability": "nonpayable",
      "type": "function"
    },
    {
      "inputs": [
        {
          "internalType": "address",
          "name": "operator",
          "type": "address"
        },
        {
          "internalType": "bool",
          "name": "approved",
          "type": "bool"
        }
      ],
      "name": "setApprovalForAll",
      "outputs": [],
      "stateMutability": "nonpayable",
      "type": "function"
    },
    {
      "inputs": [
        {
          "internalType": "bytes4",
          "name": "interfaceId",
          "type": "bytes4"
        }
      ],
      "name": "supportsInterface",
      "outputs": [
        {
          "internalType": "bool",
          "name": "",
          "type": "bool"
        }
      ],
      "stateMutability": "view",
      "type": "function"
    },
    {
      "inputs": [],
      "name": "symbol",
      "outputs": [
        {
          "internalType": "string",
          "name": "",
          "type": "string"
        }
      ],
      "stateMutability": "view",
      "type": "function"
    },
    {
      "inputs": [
        {
          "internalType": "uint256",
          "name": "",
          "type": "uint256"
        }
      ],
      "name": "tokenIdToLevels",
      "outputs": [
        {
          "internalType": "uint256",
          "name": "",
          "type": "uint256"
        }
      ],
      "stateMutability": "view",
      "type": "function"
    },
    {
      "inputs": [
        {
          "internalType": "uint256",
          "name": "tokenId",
          "type": "uint256"
        }
      ],
      "name": "tokenURI",
      "outputs": [
        {
          "internalType": "string",
          "name": "",
          "type": "string"
        }
      ],
      "stateMutability": "view",
      "type": "function"
    },
    {
      "inputs": [
        {
          "internalType": "uint256",
          "name": "tokenId",
          "type": "uint256"
        }
      ],
      "name": "train",
      "outputs": [],
      "stateMutability": "nonpayable",
      "type": "function"
    },
    {
      "inputs": [
        {
          "internalType": "address",
          "name": "from",
          "type": "address"
        },
        {
          "internalType": "address",
          "name": "to",
          "type": "address"
        },
        {
          "internalType": "uint256",
          "name": "tokenId",
          "type": "uint256"
        }
      ],
      "name": "transferFrom",
      "outputs": [],
      "stateMutability": "nonpayable",
      "type": "function"
    }
  ],
  "transactionHash": "0x9bef9cfcfccde82d16c825be714b5002b340df7e606074fb569ff9ce1fe22b51",
  "args": [],
  "numDeployments": 1,
  "solcInputHash": "d84af90158b17404ba01a5f28756c31a",
  "bytecode": "0x60806040523480156200001157600080fd5b506040518060400160405280600d81526020017f436861696e20426174746c6573000000000000000000000000000000000000008152506040518060400160405280600581526020017f4342544c5300000000000000000000000000000000000000000000000000000081525081600090816200008f919062000324565b508060019081620000a1919062000324565b5050506200040b565b600081519050919050565b7f4e487b7100000000000000000000000000000000000000000000000000000000600052604160045260246000fd5b7f4e487b7100000000000000000000000000000000000000000000000000000000600052602260045260246000fd5b600060028204905060018216806200012c57607f821691505b602082108103620001425762000141620000e4565b5b50919050565b60008190508160005260206000209050919050565b60006020601f8301049050919050565b600082821b905092915050565b600060088302620001ac7fffffffffffffffffffffffffffffffffffffffffffffffffffffffffffffffff826200016d565b620001b886836200016d565b95508019841693508086168417925050509392505050565b6000819050919050565b6000819050919050565b600062000205620001ff620001f984620001d0565b620001da565b620001d0565b9050919050565b6000819050919050565b6200022183620001e4565b6200023962000230826200020c565b8484546200017a565b825550505050565b600090565b6200025062000241565b6200025d81848462000216565b505050565b5b8181101562000285576200027960008262000246565b60018101905062000263565b5050565b601f821115620002d4576200029e8162000148565b620002a9846200015d565b81016020851015620002b9578190505b620002d1620002c8856200015d565b83018262000262565b50505b505050565b600082821c905092915050565b6000620002f960001984600802620002d9565b1980831691505092915050565b6000620003148383620002e6565b9150826002028217905092915050565b6200032f82620000aa565b67ffffffffffffffff8111156200034b576200034a620000b5565b5b62000357825462000113565b6200036482828562000289565b600060209050601f8311600181146200039c576000841562000387578287015190505b62000393858262000306565b86555062000403565b601f198416620003ac8662000148565b60005b82811015620003d657848901518255600182019150602085019450602081019050620003af565b86831015620003f65784890151620003f2601f891682620002e6565b8355505b6001600288020188555050505b505050505050565b6139e1806200041b6000396000f3fe608060405234801561001057600080fd5b50600436106101215760003560e01c806342842e0e116100ad578063b88d4fde11610071578063b88d4fde14610318578063c6a4342f14610334578063c87b56dd14610364578063e985e9c514610394578063f43785f9146103c457610121565b806342842e0e146102625780636352211e1461027e57806370a08231146102ae57806395d89b41146102de578063a22cb465146102fc57610121565b80630daefed5116100f45780630daefed5146101c05780631249c58b146101f057806323b872dd146101fa578063368004ed146102165780633bb3a24d1461023257610121565b806301ffc9a71461012657806306fdde0314610156578063081812fc14610174578063095ea7b3146101a4575b600080fd5b610140600480360381019061013b9190611f51565b6103f4565b60405161014d9190611f99565b60405180910390f35b61015e6104d6565b60405161016b9190612044565b60405180910390f35b61018e6004803603810190610189919061209c565b610568565b60405161019b919061210a565b60405180910390f35b6101be60048036038101906101b99190612151565b6105ae565b005b6101da60048036038101906101d5919061209c565b6106c5565b6040516101e79190612044565b60405180910390f35b6101f8610723565b005b610214600480360381019061020f9190612191565b610773565b005b610230600480360381019061022b919061209c565b6107d3565b005b61024c6004803603810190610247919061209c565b6108e3565b6040516102599190612044565b60405180910390f35b61027c60048036038101906102779190612191565b61094b565b005b6102986004803603810190610293919061209c565b61096b565b6040516102a5919061210a565b60405180910390f35b6102c860048036038101906102c391906121e4565b6109f1565b6040516102d59190612220565b60405180910390f35b6102e6610aa8565b6040516102f39190612044565b60405180910390f35b61031660048036038101906103119190612267565b610b3a565b005b610332600480360381019061032d91906123dc565b610b50565b005b61034e6004803603810190610349919061209c565b610bb2565b60405161035b9190612220565b60405180910390f35b61037e6004803603810190610379919061209c565b610bca565b60405161038b9190612044565b60405180910390f35b6103ae60048036038101906103a9919061245f565b610cdc565b6040516103bb9190611f99565b60405180910390f35b6103de60048036038101906103d9919061209c565b610d70565b6040516103eb9190612044565b60405180910390f35b60007f80ac58cd000000000000000000000000000000000000000000000000000000007bffffffffffffffffffffffffffffffffffffffffffffffffffffffff1916827bffffffffffffffffffffffffffffffffffffffffffffffffffffffff191614806104bf57507f5b5e139f000000000000000000000000000000000000000000000000000000007bffffffffffffffffffffffffffffffffffffffffffffffffffffffff1916827bffffffffffffffffffffffffffffffffffffffffffffffffffffffff1916145b806104cf57506104ce82610d9b565b5b9050919050565b6060600080546104e5906124ce565b80601f0160208091040260200160405190810160405280929190818152602001828054610511906124ce565b801561055e5780601f106105335761010080835404028352916020019161055e565b820191906000526020600020905b81548152906001019060200180831161054157829003601f168201915b5050505050905090565b600061057382610e05565b6004600083815260200190815260200160002060009054906101000a900473ffffffffffffffffffffffffffffffffffffffff169050919050565b60006105b98261096b565b90508073ffffffffffffffffffffffffffffffffffffffff168373ffffffffffffffffffffffffffffffffffffffff1603610629576040517f08c379a000000000000000000000000000000000000000000000000000000000815260040161062090612571565b60405180910390fd5b8073ffffffffffffffffffffffffffffffffffffffff16610648610e50565b73ffffffffffffffffffffffffffffffffffffffff161480610677575061067681610671610e50565b610cdc565b5b6106b6576040517f08c379a00000000000000000000000000000000000000000000000000000000081526004016106ad90612603565b60405180910390fd5b6106c08383610e58565b505050565b606060006106d283610d70565b6040516020016106e29190612a87565b60405160208183030381529060405290506106fc81610f11565b60405160200161070c9190612b58565b604051602081830303815290604052915050919050565b61072d6007611074565b6000610739600761108a565b90506107453382611098565b600060086000838152602001908152602001600020819055506107708161076b836108e3565b6110b6565b50565b61078461077e610e50565b82611123565b6107c3576040517f08c379a00000000000000000000000000000000000000000000000000000000081526004016107ba90612bec565b60405180910390fd5b6107ce8383836111b8565b505050565b6107dc816114b1565b61081b576040517f08c379a000000000000000000000000000000000000000000000000000000000815260040161081290612c58565b60405180910390fd5b3373ffffffffffffffffffffffffffffffffffffffff1661083b8261096b565b73ffffffffffffffffffffffffffffffffffffffff1614610891576040517f08c379a000000000000000000000000000000000000000000000000000000000815260040161088890612cea565b60405180910390fd5b6000600860008381526020019081526020016000205490506001816108b69190612d39565b60086000848152602001908152602001600020819055506108df826108da846108e3565b6110b6565b5050565b606060006108f0836114f2565b6108f9846106c5565b60405160200161090a929190612fa7565b604051602081830303815290604052905061092481610f11565b6040516020016109349190613064565b604051602081830303815290604052915050919050565b61096683838360405180602001604052806000815250610b50565b505050565b600080610977836115c0565b9050600073ffffffffffffffffffffffffffffffffffffffff168173ffffffffffffffffffffffffffffffffffffffff16036109e8576040517f08c379a00000000000000000000000000000000000000000000000000000000081526004016109df906130d2565b60405180910390fd5b80915050919050565b60008073ffffffffffffffffffffffffffffffffffffffff168273ffffffffffffffffffffffffffffffffffffffff1603610a61576040517f08c379a0000000000000000000000000000000000000000000000000000000008152600401610a5890613164565b60405180910390fd5b600360008373ffffffffffffffffffffffffffffffffffffffff1673ffffffffffffffffffffffffffffffffffffffff168152602001908152602001600020549050919050565b606060018054610ab7906124ce565b80601f0160208091040260200160405190810160405280929190818152602001828054610ae3906124ce565b8015610b305780601f10610b0557610100808354040283529160200191610b30565b820191906000526020600020905b815481529060010190602001808311610b1357829003601f168201915b5050505050905090565b610b4c610b45610e50565b83836115fd565b5050565b610b61610b5b610e50565b83611123565b610ba0576040517f08c379a0000000000000000000000000000000000000000000000000000000008152600401610b9790612bec565b60405180910390fd5b610bac84848484611769565b50505050565b60086020528060005260406000206000915090505481565b6060610bd582610e05565b6000600660008481526020019081526020016000208054610bf5906124ce565b80601f0160208091040260200160405190810160405280929190818152602001828054610c21906124ce565b8015610c6e5780601f10610c4357610100808354040283529160200191610c6e565b820191906000526020600020905b815481529060010190602001808311610c5157829003601f168201915b505050505090506000610c7f6117c5565b90506000815103610c94578192505050610cd7565b600082511115610cc9578082604051602001610cb1929190613184565b60405160208183030381529060405292505050610cd7565b610cd2846117dc565b925050505b919050565b6000600560008473ffffffffffffffffffffffffffffffffffffffff1673ffffffffffffffffffffffffffffffffffffffff16815260200190815260200160002060008373ffffffffffffffffffffffffffffffffffffffff1673ffffffffffffffffffffffffffffffffffffffff16815260200190815260200160002060009054906101000a900460ff16905092915050565b6060600060086000848152602001908152602001600020549050610d93816114f2565b915050919050565b60007f01ffc9a7000000000000000000000000000000000000000000000000000000007bffffffffffffffffffffffffffffffffffffffffffffffffffffffff1916827bffffffffffffffffffffffffffffffffffffffffffffffffffffffff1916149050919050565b610e0e816114b1565b610e4d576040517f08c379a0000000000000000000000000000000000000000000000000000000008152600401610e44906130d2565b60405180910390fd5b50565b600033905090565b816004600083815260200190815260200160002060006101000a81548173ffffffffffffffffffffffffffffffffffffffff021916908373ffffffffffffffffffffffffffffffffffffffff160217905550808273ffffffffffffffffffffffffffffffffffffffff16610ecb8361096b565b73ffffffffffffffffffffffffffffffffffffffff167f8c5be1e5ebec7d5bd14f71427d1e84f3dd0314c0f7b2291e5b200ac8c7c3b92560405160405180910390a45050565b60606000825103610f335760405180602001604052806000815250905061106f565b600060405180606001604052806040815260200161396c6040913990506000600360028551610f629190612d39565b610f6c91906131d7565b6004610f789190613208565b67ffffffffffffffff811115610f9157610f906122b1565b5b6040519080825280601f01601f191660200182016040528015610fc35781602001600182028036833780820191505090505b509050600182016020820185865187015b8082101561102f576003820191508151603f8160121c168501518453600184019350603f81600c1c168501518453600184019350603f8160061c168501518453600184019350603f8116850151845360018401935050610fd4565b505060038651066001811461104b576002811461105e57611066565b603d6001830353603d6002830353611066565b603d60018303535b50505080925050505b919050565b6001816000016000828254019250508190555050565b600081600001549050919050565b6110b2828260405180602001604052806000815250611844565b5050565b6110bf826114b1565b6110fe576040517f08c379a00000000000000000000000000000000000000000000000000000000081526004016110f5906132bc565b60405180910390fd5b8060066000848152602001908152602001600020908161111e9190613488565b505050565b60008061112f8361096b565b90508073ffffffffffffffffffffffffffffffffffffffff168473ffffffffffffffffffffffffffffffffffffffff16148061117157506111708185610cdc565b5b806111af57508373ffffffffffffffffffffffffffffffffffffffff1661119784610568565b73ffffffffffffffffffffffffffffffffffffffff16145b91505092915050565b8273ffffffffffffffffffffffffffffffffffffffff166111d88261096b565b73ffffffffffffffffffffffffffffffffffffffff161461122e576040517f08c379a0000000000000000000000000000000000000000000000000000000008152600401611225906135cc565b60405180910390fd5b600073ffffffffffffffffffffffffffffffffffffffff168273ffffffffffffffffffffffffffffffffffffffff160361129d576040517f08c379a00000000000000000000000000000000000000000000000000000000081526004016112949061365e565b60405180910390fd5b6112aa838383600161189f565b8273ffffffffffffffffffffffffffffffffffffffff166112ca8261096b565b73ffffffffffffffffffffffffffffffffffffffff1614611320576040517f08c379a0000000000000000000000000000000000000000000000000000000008152600401611317906135cc565b60405180910390fd5b6004600082815260200190815260200160002060006101000a81549073ffffffffffffffffffffffffffffffffffffffff02191690556001600360008573ffffffffffffffffffffffffffffffffffffffff1673ffffffffffffffffffffffffffffffffffffffff168152602001908152602001600020600082825403925050819055506001600360008473ffffffffffffffffffffffffffffffffffffffff1673ffffffffffffffffffffffffffffffffffffffff16815260200190815260200160002060008282540192505081905550816002600083815260200190815260200160002060006101000a81548173ffffffffffffffffffffffffffffffffffffffff021916908373ffffffffffffffffffffffffffffffffffffffff160217905550808273ffffffffffffffffffffffffffffffffffffffff168473ffffffffffffffffffffffffffffffffffffffff167fddf252ad1be2c89b69c2b068fc378daa952ba7f163c4a11628f55a4df523b3ef60405160405180910390a46114ac83838360016119c5565b505050565b60008073ffffffffffffffffffffffffffffffffffffffff166114d3836115c0565b73ffffffffffffffffffffffffffffffffffffffff1614159050919050565b606060006001611501846119cb565b01905060008167ffffffffffffffff8111156115205761151f6122b1565b5b6040519080825280601f01601f1916602001820160405280156115525781602001600182028036833780820191505090505b509050600082602001820190505b6001156115b5578080600190039150507f3031323334353637383961626364656600000000000000000000000000000000600a86061a8153600a85816115a9576115a86131a8565b5b04945060008503611560575b819350505050919050565b60006002600083815260200190815260200160002060009054906101000a900473ffffffffffffffffffffffffffffffffffffffff169050919050565b8173ffffffffffffffffffffffffffffffffffffffff168373ffffffffffffffffffffffffffffffffffffffff160361166b576040517f08c379a0000000000000000000000000000000000000000000000000000000008152600401611662906136ca565b60405180910390fd5b80600560008573ffffffffffffffffffffffffffffffffffffffff1673ffffffffffffffffffffffffffffffffffffffff16815260200190815260200160002060008473ffffffffffffffffffffffffffffffffffffffff1673ffffffffffffffffffffffffffffffffffffffff16815260200190815260200160002060006101000a81548160ff0219169083151502179055508173ffffffffffffffffffffffffffffffffffffffff168373ffffffffffffffffffffffffffffffffffffffff167f17307eab39ab6107e8899845ad3d59bd9653f200f220920489ca2b5937696c318360405161175c9190611f99565b60405180910390a3505050565b6117748484846111b8565b61178084848484611b1e565b6117bf576040517f08c379a00000000000000000000000000000000000000000000000000000000081526004016117b69061375c565b60405180910390fd5b50505050565b606060405180602001604052806000815250905090565b60606117e782610e05565b60006117f16117c5565b90506000815111611811576040518060200160405280600081525061183c565b8061181b846114f2565b60405160200161182c929190613184565b6040516020818303038152906040525b915050919050565b61184e8383611ca5565b61185b6000848484611b1e565b61189a576040517f08c379a00000000000000000000000000000000000000000000000000000000081526004016118919061375c565b60405180910390fd5b505050565b60018111156119bf57600073ffffffffffffffffffffffffffffffffffffffff168473ffffffffffffffffffffffffffffffffffffffff16146119335780600360008673ffffffffffffffffffffffffffffffffffffffff1673ffffffffffffffffffffffffffffffffffffffff168152602001908152602001600020600082825461192b919061377c565b925050819055505b600073ffffffffffffffffffffffffffffffffffffffff168373ffffffffffffffffffffffffffffffffffffffff16146119be5780600360008573ffffffffffffffffffffffffffffffffffffffff1673ffffffffffffffffffffffffffffffffffffffff16815260200190815260200160002060008282546119b69190612d39565b925050819055505b5b50505050565b50505050565b600080600090507a184f03e93ff9f4daa797ed6e38ed64bf6a1f0100000000000000008310611a29577a184f03e93ff9f4daa797ed6e38ed64bf6a1f0100000000000000008381611a1f57611a1e6131a8565b5b0492506040810190505b6d04ee2d6d415b85acef81000000008310611a66576d04ee2d6d415b85acef81000000008381611a5c57611a5b6131a8565b5b0492506020810190505b662386f26fc100008310611a9557662386f26fc100008381611a8b57611a8a6131a8565b5b0492506010810190505b6305f5e1008310611abe576305f5e1008381611ab457611ab36131a8565b5b0492506008810190505b6127108310611ae3576127108381611ad957611ad86131a8565b5b0492506004810190505b60648310611b065760648381611afc57611afb6131a8565b5b0492506002810190505b600a8310611b15576001810190505b80915050919050565b6000611b3f8473ffffffffffffffffffffffffffffffffffffffff16611ec2565b15611c98578373ffffffffffffffffffffffffffffffffffffffff1663150b7a02611b68610e50565b8786866040518563ffffffff1660e01b8152600401611b8a9493929190613805565b6020604051808303816000875af1925050508015611bc657506040513d601f19601f82011682018060405250810190611bc39190613866565b60015b611c48573d8060008114611bf6576040519150601f19603f3d011682016040523d82523d6000602084013e611bfb565b606091505b506000815103611c40576040517f08c379a0000000000000000000000000000000000000000000000000000000008152600401611c379061375c565b60405180910390fd5b805181602001fd5b63150b7a0260e01b7bffffffffffffffffffffffffffffffffffffffffffffffffffffffff1916817bffffffffffffffffffffffffffffffffffffffffffffffffffffffff191614915050611c9d565b600190505b949350505050565b600073ffffffffffffffffffffffffffffffffffffffff168273ffffffffffffffffffffffffffffffffffffffff1603611d14576040517f08c379a0000000000000000000000000000000000000000000000000000000008152600401611d0b906138df565b60405180910390fd5b611d1d816114b1565b15611d5d576040517f08c379a0000000000000000000000000000000000000000000000000000000008152600401611d549061394b565b60405180910390fd5b611d6b60008383600161189f565b611d74816114b1565b15611db4576040517f08c379a0000000000000000000000000000000000000000000000000000000008152600401611dab9061394b565b60405180910390fd5b6001600360008473ffffffffffffffffffffffffffffffffffffffff1673ffffffffffffffffffffffffffffffffffffffff16815260200190815260200160002060008282540192505081905550816002600083815260200190815260200160002060006101000a81548173ffffffffffffffffffffffffffffffffffffffff021916908373ffffffffffffffffffffffffffffffffffffffff160217905550808273ffffffffffffffffffffffffffffffffffffffff16600073ffffffffffffffffffffffffffffffffffffffff167fddf252ad1be2c89b69c2b068fc378daa952ba7f163c4a11628f55a4df523b3ef60405160405180910390a4611ebe6000838360016119c5565b5050565b6000808273ffffffffffffffffffffffffffffffffffffffff163b119050919050565b6000604051905090565b600080fd5b600080fd5b60007fffffffff0000000000000000000000000000000000000000000000000000000082169050919050565b611f2e81611ef9565b8114611f3957600080fd5b50565b600081359050611f4b81611f25565b92915050565b600060208284031215611f6757611f66611eef565b5b6000611f7584828501611f3c565b91505092915050565b60008115159050919050565b611f9381611f7e565b82525050565b6000602082019050611fae6000830184611f8a565b92915050565b600081519050919050565b600082825260208201905092915050565b60005b83811015611fee578082015181840152602081019050611fd3565b60008484015250505050565b6000601f19601f8301169050919050565b600061201682611fb4565b6120208185611fbf565b9350612030818560208601611fd0565b61203981611ffa565b840191505092915050565b6000602082019050818103600083015261205e818461200b565b905092915050565b6000819050919050565b61207981612066565b811461208457600080fd5b50565b60008135905061209681612070565b92915050565b6000602082840312156120b2576120b1611eef565b5b60006120c084828501612087565b91505092915050565b600073ffffffffffffffffffffffffffffffffffffffff82169050919050565b60006120f4826120c9565b9050919050565b612104816120e9565b82525050565b600060208201905061211f60008301846120fb565b92915050565b61212e816120e9565b811461213957600080fd5b50565b60008135905061214b81612125565b92915050565b6000806040838503121561216857612167611eef565b5b60006121768582860161213c565b925050602061218785828601612087565b9150509250929050565b6000806000606084860312156121aa576121a9611eef565b5b60006121b88682870161213c565b93505060206121c98682870161213c565b92505060406121da86828701612087565b9150509250925092565b6000602082840312156121fa576121f9611eef565b5b60006122088482850161213c565b91505092915050565b61221a81612066565b82525050565b60006020820190506122356000830184612211565b92915050565b61224481611f7e565b811461224f57600080fd5b50565b6000813590506122618161223b565b92915050565b6000806040838503121561227e5761227d611eef565b5b600061228c8582860161213c565b925050602061229d85828601612252565b9150509250929050565b600080fd5b600080fd5b7f4e487b7100000000000000000000000000000000000000000000000000000000600052604160045260246000fd5b6122e982611ffa565b810181811067ffffffffffffffff82111715612308576123076122b1565b5b80604052505050565b600061231b611ee5565b905061232782826122e0565b919050565b600067ffffffffffffffff821115612347576123466122b1565b5b61235082611ffa565b9050602081019050919050565b82818337600083830152505050565b600061237f61237a8461232c565b612311565b90508281526020810184848401111561239b5761239a6122ac565b5b6123a684828561235d565b509392505050565b600082601f8301126123c3576123c26122a7565b5b81356123d384826020860161236c565b91505092915050565b600080600080608085870312156123f6576123f5611eef565b5b60006124048782880161213c565b94505060206124158782880161213c565b935050604061242687828801612087565b925050606085013567ffffffffffffffff81111561244757612446611ef4565b5b612453878288016123ae565b91505092959194509250565b6000806040838503121561247657612475611eef565b5b60006124848582860161213c565b92505060206124958582860161213c565b9150509250929050565b7f4e487b7100000000000000000000000000000000000000000000000000000000600052602260045260246000fd5b600060028204905060018216806124e657607f821691505b6020821081036124f9576124f861249f565b5b50919050565b7f4552433732313a20617070726f76616c20746f2063757272656e74206f776e6560008201527f7200000000000000000000000000000000000000000000000000000000000000602082015250565b600061255b602183611fbf565b9150612566826124ff565b604082019050919050565b6000602082019050818103600083015261258a8161254e565b9050919050565b7f4552433732313a20617070726f76652063616c6c6572206973206e6f7420746f60008201527f6b656e206f776e6572206f7220617070726f76656420666f7220616c6c000000602082015250565b60006125ed603d83611fbf565b91506125f882612591565b604082019050919050565b6000602082019050818103600083015261261c816125e0565b9050919050565b600081905092915050565b7f3c73766720786d6c6e733d22687474703a2f2f7777772e77332e6f72672f323060008201527f30302f73766722207072657365727665417370656374526174696f3d22784d6960208201527f6e594d696e206d656574222076696577426f783d22302030203335302033353060408201527f223e000000000000000000000000000000000000000000000000000000000000606082015250565b60006126d6606283612623565b91506126e18261262e565b606282019050919050565b7f3c7374796c653e2e62617365207b2066696c6c3a2077686974653b20666f6e7460008201527f2d66616d696c793a2073657269663b20666f6e742d73697a653a20313470783b60208201527f207d3c2f7374796c653e00000000000000000000000000000000000000000000604082015250565b600061276e604a83612623565b9150612779826126ec565b604a82019050919050565b7f3c726563742077696474683d223130302522206865696768743d22313030252260008201527f2066696c6c3d22626c61636b22202f3e00000000000000000000000000000000602082015250565b60006127e0603083612623565b91506127eb82612784565b603082019050919050565b7f3c7465787420783d223530252220793d223430252220636c6173733d2262617360008201527f652220646f6d696e616e742d626173656c696e653d226d6964646c652220746560208201527f78742d616e63686f723d226d6964646c65223e00000000000000000000000000604082015250565b6000612878605383612623565b9150612883826127f6565b605382019050919050565b7f57617272696f7200000000000000000000000000000000000000000000000000600082015250565b60006128c4600783612623565b91506128cf8261288e565b600782019050919050565b7f3c2f746578743e00000000000000000000000000000000000000000000000000600082015250565b6000612910600783612623565b915061291b826128da565b600782019050919050565b7f3c7465787420783d223530252220793d223530252220636c6173733d2262617360008201527f652220646f6d696e616e742d626173656c696e653d226d6964646c652220746560208201527f78742d616e63686f723d226d6964646c65223e00000000000000000000000000604082015250565b60006129a8605383612623565b91506129b382612926565b605382019050919050565b7f4c6576656c733a20000000000000000000000000000000000000000000000000600082015250565b60006129f4600883612623565b91506129ff826129be565b600882019050919050565b6000612a1582611fb4565b612a1f8185612623565b9350612a2f818560208601611fd0565b80840191505092915050565b7f3c2f7376673e0000000000000000000000000000000000000000000000000000600082015250565b6000612a71600683612623565b9150612a7c82612a3b565b600682019050919050565b6000612a92826126c9565b9150612a9d82612761565b9150612aa8826127d3565b9150612ab38261286b565b9150612abe826128b7565b9150612ac982612903565b9150612ad48261299b565b9150612adf826129e7565b9150612aeb8284612a0a565b9150612af682612903565b9150612b0182612a64565b915081905092915050565b7f646174613a696d6167652f7376672b786d6c3b6261736536342c000000000000600082015250565b6000612b42601a83612623565b9150612b4d82612b0c565b601a82019050919050565b6000612b6382612b35565b9150612b6f8284612a0a565b915081905092915050565b7f4552433732313a2063616c6c6572206973206e6f7420746f6b656e206f776e6560008201527f72206f7220617070726f76656400000000000000000000000000000000000000602082015250565b6000612bd6602d83611fbf565b9150612be182612b7a565b604082019050919050565b60006020820190508181036000830152612c0581612bc9565b9050919050565b7f506c656173652075736520616e206578697374696e6720746f6b656e00000000600082015250565b6000612c42601c83611fbf565b9150612c4d82612c0c565b602082019050919050565b60006020820190508181036000830152612c7181612c35565b9050919050565b7f596f75206d757374206f776e207468697320746f6b656e20746f20747261696e60008201527f2069740000000000000000000000000000000000000000000000000000000000602082015250565b6000612cd4602383611fbf565b9150612cdf82612c78565b604082019050919050565b60006020820190508181036000830152612d0381612cc7565b9050919050565b7f4e487b7100000000000000000000000000000000000000000000000000000000600052601160045260246000fd5b6000612d4482612066565b9150612d4f83612066565b9250828201905080821115612d6757612d66612d0a565b5b92915050565b7f7b00000000000000000000000000000000000000000000000000000000000000600082015250565b6000612da3600183612623565b9150612dae82612d6d565b600182019050919050565b7f226e616d65223a2022436861696e20426174746c657320230000000000000000600082015250565b6000612def601883612623565b9150612dfa82612db9565b601882019050919050565b7f222c000000000000000000000000000000000000000000000000000000000000600082015250565b6000612e3b600283612623565b9150612e4682612e05565b600282019050919050565b7f226465736372697074696f6e223a2022426174746c6573206f6e20636861696e60008201527f222c000000000000000000000000000000000000000000000000000000000000602082015250565b6000612ead602283612623565b9150612eb882612e51565b602282019050919050565b7f22696d616765223a202200000000000000000000000000000000000000000000600082015250565b6000612ef9600a83612623565b9150612f0482612ec3565b600a82019050919050565b7f2200000000000000000000000000000000000000000000000000000000000000600082015250565b6000612f45600183612623565b9150612f5082612f0f565b600182019050919050565b7f7d00000000000000000000000000000000000000000000000000000000000000600082015250565b6000612f91600183612623565b9150612f9c82612f5b565b600182019050919050565b6000612fb282612d96565b9150612fbd82612de2565b9150612fc98285612a0a565b9150612fd482612e2e565b9150612fdf82612ea0565b9150612fea82612eec565b9150612ff68284612a0a565b915061300182612f38565b915061300c82612f84565b91508190509392505050565b7f646174613a6170706c69636174696f6e2f6a736f6e3b6261736536342c000000600082015250565b600061304e601d83612623565b915061305982613018565b601d82019050919050565b600061306f82613041565b915061307b8284612a0a565b915081905092915050565b7f4552433732313a20696e76616c696420746f6b656e2049440000000000000000600082015250565b60006130bc601883611fbf565b91506130c782613086565b602082019050919050565b600060208201905081810360008301526130eb816130af565b9050919050565b7f4552433732313a2061646472657373207a65726f206973206e6f74206120766160008201527f6c6964206f776e65720000000000000000000000000000000000000000000000602082015250565b600061314e602983611fbf565b9150613159826130f2565b604082019050919050565b6000602082019050818103600083015261317d81613141565b9050919050565b60006131908285612a0a565b915061319c8284612a0a565b91508190509392505050565b7f4e487b7100000000000000000000000000000000000000000000000000000000600052601260045260246000fd5b60006131e282612066565b91506131ed83612066565b9250826131fd576131fc6131a8565b5b828204905092915050565b600061321382612066565b915061321e83612066565b925082820261322c81612066565b9150828204841483151761324357613242612d0a565b5b5092915050565b7f45524337323155524953746f726167653a2055524920736574206f66206e6f6e60008201527f6578697374656e7420746f6b656e000000000000000000000000000000000000602082015250565b60006132a6602e83611fbf565b91506132b18261324a565b604082019050919050565b600060208201905081810360008301526132d581613299565b9050919050565b60008190508160005260206000209050919050565b60006020601f8301049050919050565b600082821b905092915050565b60006008830261333e7fffffffffffffffffffffffffffffffffffffffffffffffffffffffffffffffff82613301565b6133488683613301565b95508019841693508086168417925050509392505050565b6000819050919050565b600061338561338061337b84612066565b613360565b612066565b9050919050565b6000819050919050565b61339f8361336a565b6133b36133ab8261338c565b84845461330e565b825550505050565b600090565b6133c86133bb565b6133d3818484613396565b505050565b5b818110156133f7576133ec6000826133c0565b6001810190506133d9565b5050565b601f82111561343c5761340d816132dc565b613416846132f1565b81016020851015613425578190505b613439613431856132f1565b8301826133d8565b50505b505050565b600082821c905092915050565b600061345f60001984600802613441565b1980831691505092915050565b6000613478838361344e565b9150826002028217905092915050565b61349182611fb4565b67ffffffffffffffff8111156134aa576134a96122b1565b5b6134b482546124ce565b6134bf8282856133fb565b600060209050601f8311600181146134f257600084156134e0578287015190505b6134ea858261346c565b865550613552565b601f198416613500866132dc565b60005b8281101561352857848901518255600182019150602085019450602081019050613503565b868310156135455784890151613541601f89168261344e565b8355505b6001600288020188555050505b505050505050565b7f4552433732313a207472616e736665722066726f6d20696e636f72726563742060008201527f6f776e6572000000000000000000000000000000000000000000000000000000602082015250565b60006135b6602583611fbf565b91506135c18261355a565b604082019050919050565b600060208201905081810360008301526135e5816135a9565b9050919050565b7f4552433732313a207472616e7366657220746f20746865207a65726f2061646460008201527f7265737300000000000000000000000000000000000000000000000000000000602082015250565b6000613648602483611fbf565b9150613653826135ec565b604082019050919050565b600060208201905081810360008301526136778161363b565b9050919050565b7f4552433732313a20617070726f766520746f2063616c6c657200000000000000600082015250565b60006136b4601983611fbf565b91506136bf8261367e565b602082019050919050565b600060208201905081810360008301526136e3816136a7565b9050919050565b7f4552433732313a207472616e7366657220746f206e6f6e20455243373231526560008201527f63656976657220696d706c656d656e7465720000000000000000000000000000602082015250565b6000613746603283611fbf565b9150613751826136ea565b604082019050919050565b6000602082019050818103600083015261377581613739565b9050919050565b600061378782612066565b915061379283612066565b92508282039050818111156137aa576137a9612d0a565b5b92915050565b600081519050919050565b600082825260208201905092915050565b60006137d7826137b0565b6137e181856137bb565b93506137f1818560208601611fd0565b6137fa81611ffa565b840191505092915050565b600060808201905061381a60008301876120fb565b61382760208301866120fb565b6138346040830185612211565b818103606083015261384681846137cc565b905095945050505050565b60008151905061386081611f25565b92915050565b60006020828403121561387c5761387b611eef565b5b600061388a84828501613851565b91505092915050565b7f4552433732313a206d696e7420746f20746865207a65726f2061646472657373600082015250565b60006138c9602083611fbf565b91506138d482613893565b602082019050919050565b600060208201905081810360008301526138f8816138bc565b9050919050565b7f4552433732313a20746f6b656e20616c7265616479206d696e74656400000000600082015250565b6000613935601c83611fbf565b9150613940826138ff565b602082019050919050565b6000602082019050818103600083015261396481613928565b905091905056fe4142434445464748494a4b4c4d4e4f505152535455565758595a6162636465666768696a6b6c6d6e6f707172737475767778797a303132333435363738392b2fa26469706673582212209bff2c46359f860ca409ab5d98ee6bad5c0b46c10ae214055172e69d61b5508664736f6c63430008110033",
  "devdoc": {
    "kind": "dev",
    "methods": {
      "approve(address,uint256)": {
        "details": "See {IERC721-approve}."
      },
      "balanceOf(address)": {
        "details": "See {IERC721-balanceOf}."
      },
      "getApproved(uint256)": {
        "details": "See {IERC721-getApproved}."
      },
      "isApprovedForAll(address,address)": {
        "details": "See {IERC721-isApprovedForAll}."
      },
      "name()": {
        "details": "See {IERC721Metadata-name}."
      },
      "ownerOf(uint256)": {
        "details": "See {IERC721-ownerOf}."
      },
      "safeTransferFrom(address,address,uint256)": {
        "details": "See {IERC721-safeTransferFrom}."
      },
      "safeTransferFrom(address,address,uint256,bytes)": {
        "details": "See {IERC721-safeTransferFrom}."
      },
      "setApprovalForAll(address,bool)": {
        "details": "See {IERC721-setApprovalForAll}."
      },
      "supportsInterface(bytes4)": {
        "details": "See {IERC165-supportsInterface}."
      },
      "symbol()": {
        "details": "See {IERC721Metadata-symbol}."
      },
      "tokenURI(uint256)": {
        "details": "See {IERC721Metadata-tokenURI}."
      },
      "transferFrom(address,address,uint256)": {
        "details": "See {IERC721-transferFrom}."
      }
    },
    "version": 1
  },
  "userdoc": {
    "kind": "user",
    "methods": {},
    "version": 1
  },
  "storageLayout": {
    "storage": [
      {
        "astId": 25,
        "contract": "contracts/ChainBattles.sol:ChainBattles",
        "label": "_name",
        "offset": 0,
        "slot": "0",
        "type": "t_string_storage"
      },
      {
        "astId": 27,
        "contract": "contracts/ChainBattles.sol:ChainBattles",
        "label": "_symbol",
        "offset": 0,
        "slot": "1",
        "type": "t_string_storage"
      },
      {
        "astId": 31,
        "contract": "contracts/ChainBattles.sol:ChainBattles",
        "label": "_owners",
        "offset": 0,
        "slot": "2",
        "type": "t_mapping(t_uint256,t_address)"
      },
      {
        "astId": 35,
        "contract": "contracts/ChainBattles.sol:ChainBattles",
        "label": "_balances",
        "offset": 0,
        "slot": "3",
        "type": "t_mapping(t_address,t_uint256)"
      },
      {
        "astId": 39,
        "contract": "contracts/ChainBattles.sol:ChainBattles",
        "label": "_tokenApprovals",
        "offset": 0,
        "slot": "4",
        "type": "t_mapping(t_uint256,t_address)"
      },
      {
        "astId": 45,
        "contract": "contracts/ChainBattles.sol:ChainBattles",
        "label": "_operatorApprovals",
        "offset": 0,
        "slot": "5",
        "type": "t_mapping(t_address,t_mapping(t_address,t_bool))"
      },
      {
        "astId": 1091,
        "contract": "contracts/ChainBattles.sol:ChainBattles",
        "label": "_tokenURIs",
        "offset": 0,
        "slot": "6",
        "type": "t_mapping(t_uint256,t_string_storage)"
      },
      {
        "astId": 2797,
        "contract": "contracts/ChainBattles.sol:ChainBattles",
        "label": "_tokenIds",
        "offset": 0,
        "slot": "7",
        "type": "t_struct(Counter)1635_storage"
      },
      {
        "astId": 2801,
        "contract": "contracts/ChainBattles.sol:ChainBattles",
        "label": "tokenIdToLevels",
        "offset": 0,
        "slot": "8",
        "type": "t_mapping(t_uint256,t_uint256)"
      }
    ],
    "types": {
      "t_address": {
        "encoding": "inplace",
        "label": "address",
        "numberOfBytes": "20"
      },
      "t_bool": {
        "encoding": "inplace",
        "label": "bool",
        "numberOfBytes": "1"
      },
      "t_mapping(t_address,t_bool)": {
        "encoding": "mapping",
        "key": "t_address",
        "label": "mapping(address => bool)",
        "numberOfBytes": "32",
        "value": "t_bool"
      },
      "t_mapping(t_address,t_mapping(t_address,t_bool))": {
        "encoding": "mapping",
        "key": "t_address",
        "label": "mapping(address => mapping(address => bool))",
        "numberOfBytes": "32",
        "value": "t_mapping(t_address,t_bool)"
      },
      "t_mapping(t_address,t_uint256)": {
        "encoding": "mapping",
        "key": "t_address",
        "label": "mapping(address => uint256)",
        "numberOfBytes": "32",
        "value": "t_uint256"
      },
      "t_mapping(t_uint256,t_address)": {
        "encoding": "mapping",
        "key": "t_uint256",
        "label": "mapping(uint256 => address)",
        "numberOfBytes": "32",
        "value": "t_address"
      },
      "t_mapping(t_uint256,t_string_storage)": {
        "encoding": "mapping",
        "key": "t_uint256",
        "label": "mapping(uint256 => string)",
        "numberOfBytes": "32",
        "value": "t_string_storage"
      },
      "t_mapping(t_uint256,t_uint256)": {
        "encoding": "mapping",
        "key": "t_uint256",
        "label": "mapping(uint256 => uint256)",
        "numberOfBytes": "32",
        "value": "t_uint256"
      },
      "t_string_storage": {
        "encoding": "bytes",
        "label": "string",
        "numberOfBytes": "32"
      },
      "t_struct(Counter)1635_storage": {
        "encoding": "inplace",
        "label": "struct Counters.Counter",
        "members": [
          {
            "astId": 1634,
            "contract": "contracts/ChainBattles.sol:ChainBattles",
            "label": "_value",
            "offset": 0,
            "slot": "0",
            "type": "t_uint256"
          }
        ],
        "numberOfBytes": "32"
      },
      "t_uint256": {
        "encoding": "inplace",
        "label": "uint256",
        "numberOfBytes": "32"
      }
    }
  }
}